:020000040800F2
:1000000088060010992D0008CD2D00080104000875
:100010000904000811040008190400080000000089
:100020000000000000000000000000000DC00008FB
:10003000CD2D000800000000C9BF000809BF00085E
:10004000CD2D0008CD2D0008CD2D0008CD2D0008A8
:10005000CD2D0008CD2D0008CD2D0008CD2D000898
:10006000CD2D0008CD2D0008CD2D0008CD2D000888
:10007000CD2D0008CD2D0008CD2D0008CD2D000878
:10008000CD2D0008CD2D0008CD2D000899030008C6
:100090009D020008CD2D00089D030008CD2D00080D
:1000A000CD2D0008CD2D0008CD2D0008CD2D000848
:1000B000CD2D0008CD2D0008CD2D0008CD2D000838
:1000C000CD2D0008CD2D0008CD2D0008CD2D000828
:1000D000CD2D0008CD2D0008CD2D0008CD2D000818
:1000E000CD2D0008CD2D0008CD2D0008CD2D000808
:1000F000CD2D0008CD2D0008CD2D0008CD2D0008F8
:10010000CD2D0008CD2D0008CD2D0008CD2D0008E7
:10011000CD2D0008CD2D0008CD2D0008CD2D0008D7
:10012000CD2D0008CD2D0008CD2D0008CD2D0008C7
:10013000CD2D0008CD2D0008CD2D0008CD2D0008B7
:10014000CD2D0008CD2D0008CD2D0008CD2D0008A7
:10015000CD2D0008CD2D0008CD2D0008CD2D000897
:10016000CD2D0008CD2D0008CD2D0008CD2D000887
:10017000CD2D0008CD2D0008CD2D00080000000079
:10018000CD2D0008CD2D000810B5054C237833B9CE
:10019000044B13B10448AFF300800123237010BD5A
:1001A000A00600200000000080F4000808B5034B02
:1001B0001BB103490348AFF3008008BD00000000F5
:1001C000A406002080F40008A3F5803A704700BF21
:1001D000174B002B08BF134B9D46FFF7F5FF00217F
:1001E0008B460F461348144A121A0DF015FD0E4B9C
:1001F000002B00D098470D4B002B00D098470020D3
:10020000002104000D000D48002802D00C48AFF377
:1002100000800DF0F3FB2000290005F0C9FC0CF074
:10022000E5FF00BF0000080000000000191F0008E3
:1002300088060010A0060020F01E0020000000002C
:10024000000000000346006818B9186808B9181DB6
:1002500018607047C36810B504460BB19B68984797
:10026000204610BD036818470B680360704770474D
:10027000884238B504460D460ED0FFF7EBFF10223A
:10028000002120460DF0C8FCEB681BB15B682946D5
:1002900020469847EB68E360204638BD384B5A69E2
:1002A000D20770B52ED59D68364C996836489A6845
:1002B00005EA0406AC4301EA000104BF01249C6086
:1002C00022F06F4281422E4B08BF4FF4807022F41F
:1002D0007C0208BF9860120C2C481204824204BFB2
:1002E0004FF480309860274B9E4205D0264B9942B0
:1002F00002D0264B9A4205D1254B264A1B6810682E
:10030000012198471E4BDA685B69960707D09D0765
:1003100005D51F4B1F4A1B68106800219847184BD2
:1003200099695A695B698C0709D5900507D5190445
:1003300005D5174B174A1B68106805219847104AC6
:1003400095695469526915F0040504F4806408D075
:100350003CB1120405D50E4B0E4A1B6810680721EC
:100360009847074B5B6955B14CB11B0407D5084B47
:10037000084A1B681068BDE870400221184770BD2C
:1003800000640040030000040003000800000310A4
:10039000C0060020BC060020FFF780BFFFF77EBF2D
:1003A000024B1B6803B11847704700BFC40600200A
:1003B00007B5019000F0E0FF0198012100F070FA0C
:1003C00003B05DF804EB00F0E1BF07B5019000F069
:1003D000D3FF0198002100F063FA03B05DF804EB4D
:1003E00000F0D4BF07B5CDE9001000F0C5FFDDE98E
:1003F000001000F051FA03B05DF804EB00F0C6BF46
:100400004FF0100300F00CB84FF0200300F008B8D4
:100410004FF0300300F004B84FF0400300F000B894
:10042000EFF308804FF0040172460A4201D0EFF367
:1004300009809C46254B196802680A6004314268AD
:100440000A60043182680A600431C2680A600431BB
:10045000F0C147460F6004314F460F6004315746E4
:100460000F6004315F460F60043102690A60083191
:1004700042690A60043182690A600431C2690A6013
:100480000431034620334FF40076324200D0043367
:1004900075464FF01006354200D148330C46103CEB
:1004A0002360EFF309820A600431EFF308820A60E7
:1004B000043172460A600431EFF314820A60604628
:1004C000024B196801F0D8F8FEE7000018ED0008AB
:1004D000007B704738B50B4B03600023C0E9013146
:1004E00004460D4602730848FFF7ACFE45B1074BC2
:1004F0001A6862601C600448FFF7A4FE204638BDFD
:100500006560F8E780EA0008CC060020C8060020F5
:1005100010B5124B036004461148FFF793FEA36821
:100520002BB1104962680B68A34210D10A600E4BD0
:100530000B481A68A24204BF00221A60FFF782FE2D
:10054000237B13B9201F01F0E7FB204610BD19469D
:100550005B68A342FBD14A60E9E700BF80EA00087C
:10056000CC060020C8060020D406002010B50446A2
:10057000FFF7CEFF2046102101F0CAFB204610BD38
:10058000F8B5064614480D46FFF75CFE134B1C6891
:1005900094B1A76877B138460DF009FFA84209D198
:1005A0002A46314638460DF01BFB18B90A48FFF7BA
:1005B00049FE0FE06468EBE7072DF7D108482A46AB
:1005C00031460DF00DFB0028F0D10348FFF73AFE4D
:1005D000044B1C682046F8BDCC060020C80600204D
:1005E00070EA0008D4060020002070470020704701
:1005F000036801221B6900211847036800221B6958
:10060000114618476FF01500704703681B691847BB
:1006100003689B69184703689B6A184700290CBF49
:100620006FF0180000207047012070476FF0150030
:1006300070476FF0150070471120704770470368CE
:1006400070B51B690122002104469847051E0DDB89
:10065000236802221B69002120469847236806462A
:1006600029461B690022204698473546284670BD1A
:1006700070B50D460026C0E900660C4904462846C0
:100680000DF09DFE28442060314623681A782F2AF9
:1006900006D101332360FFF773FF6060204670BD11
:1006A000002AF8D0013301312360EEE7E4EA0008C4
:1006B00000687047406808B520B1FFF709FF431E86
:1006C0005842584108BD10B50446FFF7F3FF10B17A
:1006D000606800B1043810BD406808B520B1FFF76C
:1006E000F7FEB0FA80F0400908BD10B50446FFF7E8
:1006F000F3FF10B1606800B1043810BD40680038E5
:1007000018BF0120704730B591FAA1F391FAA1F119
:10071000B3FA83F304685B000325B1FA81F105FAAB
:1007200003F3490024EA03038A401343036030BD06
:1007300010B5394C8AB007286AD8DFE800F00411F8
:100740001C27323D485EE36C43F00103E364E36C35
:1007500003F001030193019B4FF090400AB010BDDC
:10076000E36C2E4843F00203E364E36C03F00203FE
:100770000293029BF2E7E36C294843F00403E3642D
:10078000E36C03F004030393039BE7E7E36C254862
:1007900043F00803E364E36C03F008030493049B51
:1007A000DCE7E36C204843F01003E364E36C03F000
:1007B00010030593059BD1E7E36C1C4843F020032D
:1007C000E364E36C03F020030693069BC6E7A36D86
:1007D00043F08053A365A36D03F080530793079BF9
:1007E00003F03AF9E36C124843F04003E364E36C2E
:1007F00003F040030893089BB0E7E36C0D4843F017
:100800008003E364E36C03F080030993099BA5E78D
:10081000094800F05DFE00BF0010024000040048DF
:1008200000080048000C0048001000480014004870
:1008300000180048001C0048E6EA000810B54FF414
:100840007071044604F00F0401F0A4FD0120A040E3
:1008500010BD00004B1C70B504460E46018218D036
:10086000C1F30310FFF764FF05463046FFF7E6FFCC
:10087000238A084A656103F00F03206052F8233091
:10088000A36105F11003636005F118032835A36027
:10089000E56070BD6CEF0008B0F9100001F0FEBD1E
:1008A0000A46D0E905010AB9FFF72DBF0122FBE78F
:1008B00008B504F0A9FC002008BD000008B50A4BEB
:1008C0001B684BB101F01CFD01F008FD4FF47A727A
:1008D00000230CF009FB08BD044B586A4FF47A73EF
:1008E000B0FBF3F0F7E700BF90070020000C0040DA
:1008F000416830B4034671B1D0E9032000F001042F
:1009000002B944B1451001EB60000CB149598A5855
:10091000996830BC104730BC70470000036870B560
:1009200004460D461B68984704F13000C4F8C850CF
:10093000294600F01FFA044B1C60236820465B68C0
:10094000BDE87040184700BFE0060020036870B59E
:10095000094D1B68044698472B68A34206D0D4F87B
:10096000C81004F1300000F005FA2C60236820461E
:100970005B68BDE870401847E00600207FB51D4663
:1009800003680446CDE902211B6898472046FFF71B
:10099000DDFF9DF8203083F00103DDE902210093A3
:1009A00004F130002B4600F06FFB236806465B68BD
:1009B00020469847A81B18BF012004B070BD70B531
:1009C0000546044655F8303B1B689847284600F01A
:1009D00014FB236820465B68BDE87040184770B57B
:1009E00090B00D46144600211C2202A80DF014F907
:1009F000012600231A46294602A8009600F0BFFEF1
:100A00001C22002109A80DF007F900231A460096C0
:100A1000214609A800F0B3FE0A9B1A68099B1A42F6
:100A200003D16FF0010010B070BD039B1968029BE9
:100A3000194041D109A8FFF7D5FC09A8FFF7B8FC78
:100A40000A24002109A8FFF7CDFC0C9B099A1A6023
:100A5000052001F063FC012109A8FFF7C3FC0B9BF3
:100A6000099A1A60052001F059FC013CE9D102A85D
:100A7000FFF79EFC059B029A1A60052001F04EFCD0
:100A80000B9B099A1A60052001F048FC049B029A0E
:100A90001A60052001F042FC02A8FFF796FC09A8A5
:100AA000FFF793FC0A9B1A68099B1A42B9D0039B73
:100AB0001A68029B1A42B4D00020B4E7C36810B58C
:100AC00004460BB19B689847204610BD064B10B5F5
:100AD00004460360806A08B1FFF762FC201DFFF73F
:100AE000EDFF204610BD00BF10EB000810B5044616
:100AF000FFF7ECFF2046D02101F00AF9204610BD97
:100B000008B50248FFF79EFB08BD00BFD8060020CD
:100B10001C4B2DE9F04104460D46164640F8043BB7
:100B2000102200210DF078F804F130080021164B56
:100B3000A185C4E90711C4E90911144F6361982222
:100B4000A46140460DF068F8114BC4F8C83038462F
:100B5000FFF778FB32462946A4F8CC50A4F8CE60C3
:100B60002046FFF73CFFB4F9CE20B4F9CC10404644
:100B700000F034FA074B38461C60FFF763FB204651
:100B8000BDE8F08110EB0008F1080008D80600204D
:100B9000A0860100E006002007B5054B986801908B
:100BA00002F0BEFA019803B05DF804EB02F0CBBE90
:100BB000E406002007B5054B5868019002F0B0FA32
:100BC000019803B05DF804EB02F0BDBEE40600201E
:100BD00007B5054B1868019002F0A2FA019803B01E
:100BE0005DF804EB02F0AFBEE406002070B5244CC3
:100BF00090F95C30A56890F95D2003F1100645F886
:100C0000261002F11006A56845F8261090F86C1021
:100C1000002914BF10212021002BB5BF03F00F00C5
:100C200003F16040043800F56140B6BF241880F835
:100C300000132176002A11DB02F1604000F56140CB
:100C4000002B80F800130FDA0123510902F01F0274
:100C500003FA02F20B4B43F8212070BD0A4802F060
:100C60000F04002B0155F8DB580903F01F01012385
:100C70008B40044941F82030002AE5DAEDE700BF57
:100C800000ED00E000E100E014ED00E010B590F9A7
:100C90005D4090F95C0002F0D1F82046BDE81040BC
:100CA00002F0CCB890F85030012B00F1040109D0CB
:100CB000022B09D0002B054818BF0020044A42F837
:100CC000231070470348F9E70348F7E7D10B000802
:100CD000E4060020B50B0008990B00081A4A0368C7
:100CE0001268416DB2FBF1F1142243604A439969E5
:100CF000090401D5013AFAD1144A934209D1144B9F
:100D00009A6B42F400129A639A6B22F400129A636F
:100D10007047104A934204D002F58062934209D092
:100D200070470B4B9A6B42F480029A639A6B22F4E1
:100D30008002ECE7064B9A6B42F400029A639A6BCE
:100D400022F40002E3E700BF140100200054004039
:100D5000001002400058004043681A6822F0010267
:100D60001A601A68D207FCD41A6842F001021A60AD
:100D700070470000434B70B51A68436D0D46B2FBD7
:100D8000F3F114234B4341680446061D88690004AF
:100D900001D5013BFAD13C4B9A423C4B34D13C4A01
:100DA00095423CD09D423CD03A4A3B4B954218BFBD
:100DB0000023A360354B9D4217D12268374B9A42DE
:100DC00003D14FF4801002F029FE2268344B9A427E
:100DD00003D14FF4001002F021FE2268314B9A42F9
:100DE00003D14FF4800002F019FE23682B4A93428E
:100DF0001FD102F5DE32D2F8883023F4405343F499
:100E00008053C2F888301BE027498A420BD1204A20
:100E100095420AD09D420AD01E4A244BC6E7244B75
:100E2000C7E7244BC5E70023C3E7234BC1E7234BA8
:100E3000BFE71B4A934214D002F58062934218D058
:100E40000021304602F0C3FD00230122C4E904233F
:100E5000C4E90833E360A361304602F0AAF865658F
:100E600070BD174AD2F8883023F4404343F48043DE
:100E7000C7E7134AD2F8883023F4403343F4803371
:100E8000BFE700BF1401002000B4C40440420F00BB
:100E9000801A0600A08601006B4EC130005400404D
:100EA00000580040005C0040006CDC02553EA02071
:100EB0003A14D110270E8100210C80101608500022
:100EC00000100240F0B50E46044685B03D4930465C
:100ED000154600F0C5FC3C490746284600F0C0FC1A
:100EE000A4F858600146A4F85A50384600F096FC21
:100EF000364B2060984214D1002384F8503003F11F
:100F0000804303F504339A6D42F400129A659B6D99
:100F100003F400130193019B42F21F03A4F85C3019
:100F200006E02B4B98422CD003F58063984238D0D2
:100F30002449304600F050FC2349284600F04CFC80
:100F40000421304601F0AAFA0421284601F0A6FA4D
:100F5000636D0BB91F4B63652046FFF7BFFE616DE4
:100F6000FFF708FF00234FF0007284F86D3084F81B
:100F70006C3084F86E30226684F86430A36605B065
:100F8000F0BD012384F85030134B9A6D42F4800277
:100F90009A659B6D03F480030293029B42F2212326
:100FA000BCE7022384F850300B4B9A6D42F40002E8
:100FB0009A659B6D03F400030393039B44F6481367
:100FC000ACE700BF04EE0008BCED00080054004090
:100FD00000580040A08601000010024070B5044691
:100FE0000D461646002198220CF016FE3246294680
:100FF0002046BDE87040FFF765BF10B590F86C3033
:1010000004463BB1B0F95A20B0F95810FFF75AFF27
:10101000002028E043685A6852051BD54FF48042EF
:101020005A6041F20102996989061DD52022DA61D0
:101030005A6822F47F7222F003025A602046FFF7BA
:101040008BFE236EB3F1007FE2D0B4F95A20B4F9DD
:101050005810DBE741F2010299698807DED4013AB2
:10106000FAD16FF0010010BD013ADCD1F9E710B5FB
:101070000446FFF7C2FFB4F95A20B4F958102046CD
:10108000BDE81040FFF71EBFF0B51D46036E85B0EA
:1010900033F0007304460E46039200F104071CD19E
:1010A0000A99002918BF4FF000730366002380F8E7
:1010B0006430FFF7F7FD01462046FFF797FD236EEA
:1010C0000093039AABB2B1B2384601F0C3FF38B116
:1010D0006FF00105284605B0F0BD134800F0F8F99F
:1010E000124B1E68636DB6FBF3F605FB06631E2606
:1010F0005E4394F8643013F01E0F01D1013E0FD10E
:101100002046FFF7C3FD1EB194F86430082BE1D0F0
:10111000B4F95A20B4F958102046FFF7D3FED7E7A8
:10112000012001F0FBF8E4E720EB000814010020A7
:10113000836F07B50146ABB1D0F8883093B190F812
:101140007020002A14BF4FF000720022C265009286
:10115000D0F88420B0F86C109BB201F07BFF03B094
:101160005DF804FB082381F86030F8E7082380F875
:101170006030704738B5051D0446C260284601F04E
:1011800018FF2046FFF78EFD01462046FFF72EFD93
:101190002846BDE8384001F0AFBF37B504460438F3
:1011A00094F8685005B1A568B4F95620B4F9541004
:1011B0000190FFF787FE01983DB1012384F8683064
:1011C00000232A461946FFF7D5FF022384F8603032
:1011D00003B030BD012902D180F86910704711B900
:1011E000012380F86A307047002380F86930704727
:1011F000002380F86A30704701F07EBF10B50446C6
:1012000050F80429136823F0FE031360FFF73EFD36
:10121000022384F8603010BD10B5044621B91022B5
:101220000CF0FAFC204610BD0022034B42608260A5
:101230000160C360F6E700BF48EB000803460122E7
:10124000D3E84F0FC3E8412FC0B20029F8D170474F
:10125000D0E85F3F5B18C0E8523F002AF8D198B24F
:101260007047D0E85F3F5B1AC0E8523F002AF8D1D0
:1012700098B27047D0E84F3FC0E8421FD8B27047DD
:1012800000B589B000F078F8052101A800F074FAE3
:10129000104E114D0424039B019A1A60304601F050
:1012A0003DF8049B019A1A60304601F037F8013C82
:1012B000F1D10424039B019A1A60284601F02EF80C
:1012C000049B019A1A60284601F028F8013CF1D1EC
:1012D000E0E700BFF0490200801A060007B50146AA
:1012E00000220190022000F00FFC00F045F8019967
:1012F00008460DF05CF801990246022000F004FC5B
:1013000003B05DF804EB00F041B8000000B5A3B0F5
:1013100002460B4601A884210DF08EF8832806D9D9
:10132000074B1A681B79CDF883208DF88730002889
:1013300002DD01A8FFF7D2FF23B05DF804FB00BF78
:1013400054EB00080FB407B504A951F8040B019140
:10135000FFF7DCFF03B05DF804EB04B07047EFF378
:101360001080C04300F001007047EFF305800038A3
:1013700018BF01207047000008B500F013F8024ABA
:1013800013680133136008BDF8060020044A13688F
:1013900023B1013B13600BB900F016B8704700BFD2
:1013A000F8060020EFF3108372B6054A117831B9C0
:1013B0000449DB4303F001030B70012313707047F2
:1013C000FD060020FC060020034B00221A70034B90
:1013D0001B7803B162B67047FD060020FC060020B2
:1013E00008B50B48FFF72AFF28B1FFF7C5FFBFF389
:1013F0004F8F20BFFDE7FFF7B8FF08B1FFF740FFB1
:10140000FFF7ADFF0028F9D001200BF0EFFE00BF81
:101410004C07002070B51D4C90B034EA200428BF62
:1014200004460D4616460021342203A80CF0F4FBB6
:10143000CDE900460295FFF79FFF154A1368013377
:10144000012B13600BD16D460FCD124C0FC40FCD85
:101450000FC40FCD0FC495E80F0084E80F006C4651
:101460000FCC0D4D0FC50FCC0FC50FCC0FC594E899
:101470000F0085E80F00094B1B6813B1A5F1300080
:101480009847FFF783FF002010B070BD0101FF8077
:10149000000700200C070020500700200407002050
:1014A00030B50A4D034600F13C04002013F8012B2F
:1014B00080EA0260082200284FEA4000B8BF684076
:1014C000013AF8D1A342F1D130BD00BFB71DC1042C
:1014D0000FB407B501210648CDF804E0FFF7CAFEB6
:1014E000019A014610B90348FFF794FFFFF778FF10
:1014F000080700200001FF8008B5044601211D48AF
:1015000076461546FFF7B6FE20B9324629462046F4
:10151000FFF780FF1848194C174DFFF7C1FF184B14
:10152000D3F8BC2082420ABFD3F8B4300123013380
:10153000636320460023A363FFF7B2FFE063FFF776
:101540001BFF0FCC0FC50FCC0FC50FCC0FC594E8F8
:101550000F0085E80F00FFF719FFBFF34F8F094910
:10156000094BCA6802F4E0621343CB60BFF34F8FAC
:1015700000BFFDE708070020080200105007002008
:101580008801001000ED00E00400FA05F0B52C4ED3
:101590002C4F85B000243546214656F8042B38469A
:1015A0000134FFF7CFFE0D2CF6D1AB6C02936B6CC0
:1015B00001932B6C244C0093D5E90E23696B2348CF
:1015C000FFF7C0FE21682248FFF7BCFEE16AA26A6D
:1015D000A36AA06A266BE76B000CCDE90167009057
:1015E000C3F307231B48D2B2FFF7ACFEA36A1E0663
:1015F00003D5616B1848FFF7A5FEA36A180403D54D
:10160000A16B1648FFF79EFEEB6C190712D5144824
:10161000FFF798FE2B6DDA070FD51248FFF792FE01
:10162000EB6C5B074CBF1048104805B0BDE8F040BC
:10163000FFF788BE0E48FFF785FE0E48EEE700BFB5
:101640008801001059EB000800ED00E067EB00088E
:10165000B6EB0008C4EB000813EC000821EC00080E
:101660002FEC00083EEC00086EEC00087AEC000855
:101670005EEC00084BEC000813B504461548FFF774
:1016800061FE302C17D0402C1AD0202C1DD11248CE
:10169000124CFFF757FE1248FFF754FEFFF776FF94
:1016A0001048FFF74FFE104A104900230093D26BF9
:1016B0002046FFF721FF0E480E4CFFF743FEEAE7F6
:1016C0000D480E4CFFF73EFEE5E70D480D4CFFF7C9
:1016D00039FEE0E786EC0008AFEC00083E01FF8031
:1016E000DCEC0008E7EC00088801001006ED0008BB
:1016F000BEEC00083F01FF80C7EC00084001FF80FE
:10170000D2EC00083D01FF8070B50E460446154638
:10171000FFF7A0F8013609D020460021FFF7C0F8F6
:1017200029462046BDE87040FFF7B6B870BD38B511
:10173000036804460D465AB18268136020460121B1
:10174000FFF7AEF829462046BDE83840FFF7A4B8B9
:10175000C268F2E737B50D4604460192FFF77AF802
:10176000013507D0019A0021204603B0BDE8304082
:10177000FFF7DDBF03B030BD0022FFF7EBBFF8B5C8
:10178000069F04460E461D465AB91A46FFF7BCFF8F
:10179000013603D0236817B1A2681360F8BDE26870
:1017A000FBE7FFF757F80136F8D03A4629462046BE
:1017B000BDE8F840FFF7BBBF08B503F0B9FC01F086
:1017C00007FB03F085FC03F0B3FC024B01221A6017
:1017D00008BD00BF900700201FB5431C10D105B005
:1017E0005DF804FB83420AD18968039000F0D2FDC2
:1017F0000398002105B05DF804EB00F04FBE0C31FA
:10180000B1F900305A1CEDD1002302460093024882
:101810001946FFF771FE00BF30010180884207B50D
:1018200002460AD0431C08D0013105D000230548E8
:1018300000931946FFF760FE0146084603B05DF8C5
:1018400004FB00BF30010180B1F900305A1C01D106
:1018500018467047834201D1486870470C31F3E75E
:10186000421C13B504460AD0FFF7EEFF431C06D115
:1018700000230448009322461946FFF73DFE02B0BC
:1018800010BD00BF3001018013B5074C0121204677
:10189000FFF7DEFC034628B9009001462288034882
:1018A000FFF72AFE02B010BD940700202301048038
:1018B00013B5094C01212046FFF7D3FC4FF6FF7307
:1018C000984206D100232288044800931946FFF766
:1018D00013FE02B010BD00BF940700202401048055
:1018E0006FF01C0070476FF01500704701207047C3
:1018F0000020704770470000F8B5074E15460C46AB
:101900008F18BC4205D014F8011B304601F006F9CF
:10191000F7E72846F8BD00BFF01A002038B511F0EF
:1019200001048DB205D0084800F054FE041E18BF13
:101930000124EB0605D5044800F05CFE08B144F034
:101940001004204638BD00BFF01A002010B5044630
:101950000CF0E8F8204610BD10B50C462AB104483A
:1019600001F0C6F82070012010BD1046FCE700BF52
:10197000F01A002038B51D46074B0360074B1B6863
:10198000044633B9064800F0F9FE0548294600F040
:101990007FFE204638BD00BF24ED0008E807002088
:1019A000F01A0020002070470020704708B5012081
:1019B0000BF01CFC0C4A10B513680C4C9C4200EB5D
:1019C000030103D38C423CBF094BC1180948814233
:1019D00006D90BF005FC0C2303604FF0FF3010BD5F
:1019E00011601846FBE700BF0401002000800010D2
:1019F000F01E0020008001200120704700210CF023
:101A0000BBBB7047704708B5FFF7FBFF08BD08B5C3
:101A1000FFF7F8FF08BD037803F00303012B09D09B
:101A2000037803F00302012A04D043F00203037099
:101A30000120704700207047037823F0030343F030
:101A400001030370704700003F2870B504462FDC87
:101A5000184D55F820305A1C13D1022811DCFFF71D
:101A6000A3FF034658B92046FFF79CFF034630B951
:101A7000114E3378BFF35B8FDB0704D50F4B45F86E
:101A80002430184670BD3046FFF7C5FF0028F5D05A
:101A90004FF41653032202210848FFF76BFF30462C
:101AA000FFF7CAFF064A07490448FFF7A5FFE5E725
:101AB0000023E6E70400002098070020A407002088
:101AC00000000020F518000838B50546FFF7BCFFF8
:101AD0000B4B002443F8254030B90BF081FB092360
:101AE00003604FF0FF3038BD03685B699847051EFF
:101AF00004DA0BF075FB6D420560F2E72046F2E771
:101B000004000020FFF7E0BF13B5CDE90021FFF787
:101B10009BFFDDE9002140B90BF062FB0923036064
:101B20004FF0FF34204602B010BD0368DB689847D1
:101B3000041EF7DA0BF054FB64420460F0E708B5CA
:101B4000131E07DA0BF04CFB162303604FF0FF3334
:101B5000184608BDFCD0FFF7D7FF40EAE073F7E76F
:101B600013B5CDE90021FFF76FFFDDE9002140B992
:101B70000BF036FB092303604FF0FF34204602B020
:101B800010BD03689B689847041EF7DA0BF028FB2A
:101B900064420460F0E7002A08B503DBBDE80840B2
:101BA000FFF7DEBF0BF01CFB162303604FF0FF3086
:101BB00008BD10B5FFF748FF044628B90BF010FB2D
:101BC00009230360204610BD0368DB699847041EA3
:101BD000F8DA0BF005FB644204600024F2E737B545
:101BE0004023CDF80100054668468DF800300BF023
:101BF00083FD044630B12846FFF7DBFF10B12046D5
:101C0000FFF7FCFE204603B030BDFFF7D2BF13B58F
:101C1000CDE90021FFF718FFDDE9002140B90BF005
:101C2000DFFA092303604FF0FF34204602B010BDF5
:101C300003681B699847041EF7DA0BF0D1FA644277
:101C40000460F0E7FFF7E3BF10B5FFF7FDFE30B922
:101C50000BF0C6FA092303604FF0FF3010BD036894
:101C60009B699847041E04DA0BF0BAFA64420460D8
:101C7000F2E70020F2E700000A4D08B52B680446A1
:101C800098680BF0FDFB2B68D8680BF0F9FB01207E
:101C9000FFF7DAFF0220FFF7D7FF0CB1FFF7F0FAEA
:101CA000FEE700BF2C06002038B50D46FFF7CCFE3E
:101CB000044630B90BF094FA092303604FF0FF306B
:101CC00038BD0368DB699847002814BF4FF4005300
:101CD0004FF400436B60236820469B6A9847286155
:101CE0000020EDE7FFF7E0BF1FB503900BF012FFF8
:101CF000039A034620B9009001460348FFF7FCFB16
:101D000005B05DF804FB00BF1F010180FFF7ECBFC9
:101D10000BF008BF0BF006BF10B504460848FEF7ED
:101D200091FA084A4023002152F8040BA04208BF50
:101D300042F8041C013BF7D10148FEF783FA10BDBD
:101D40009C0700200400002010B50F48FEF77AFA27
:101D50000E4B032453F824206AB10134402CF9D1EE
:101D60000BF03EFA182303600748FEF76BFA4FF0BA
:101D7000FF34204610BD4FF0FF32034843F82420C3
:101D8000FEF760FAF5E700BF9C0700200400002082
:101D900010B50446FFF7D8FF0028A4BF014B43F855
:101DA000204010BD0400002073B506460191FFF7E6
:101DB000EFFF051E13DB0199FFF711FF044630B951
:101DC000084B53F82520964204D143F825002046BD
:101DD00002B070BD0BF004FA09230360F7E700249A
:101DE000F5E700BF040000200EB42DE9F04187B0F4
:101DF0000190FFF7A9FF041E13DB00230199039351
:101E000004A8FEF735FC04A8FEF778FC1B4E054637
:101E100068B90BF0E5F91323036046F824504FF03E
:101E2000FF34204607B0BDE8F04103B0704704A876
:101E3000FEF752FC074604A837B1FEF756FC0390A4
:101E4000039B46F82430ECE7FEF73DFC05460028EE
:101E5000DFD0036804A8D3F80880FEF729FC0D9BA7
:101E6000024603A92846C04705460028E8D00BF0E3
:101E7000B7F96D42056046F82470D0E704000020F1
:101E800070B50E46154905460CF087FA044618B998
:101E9000FFF7DAFD204670BD114928460CF07DFAA7
:101EA00020B90120FFF7D0FD0124F3E70D492846B2
:101EB0000CF073FA20B90220FFF7C6FD0224E9E70F
:101EC0002B78402B02D1D5F80140E3E726F40041FE
:101ED0002846BDE87040FFF787BF00BF80ED0008CF
:101EE00087ED000878ED000870470000084B0949AD
:101EF00098684FF08053C21802F17042126843F89C
:101F0000042B8B42F7D1024B4FF080529A607047FE
:101F100000ED00E08801001008B5FFF7E7FFFFF7CC
:101F20004BFC03F0C5F9FFF7DFFF08BD2DE9F74FC4
:101F3000446894F83A100646002955D1016849686A
:101F400088477168096A814205464DD0206AE16878
:101F5000A6682562281A0140384886428C464FF010
:101F6000000E39D094F83BB0D4E90A5A0027A1FBFF
:101F70000001BBF1000F46D0CBF1200801FA08F8B0
:101F800020FA0BFCABF1200E21FA0EFE4CEA080CF5
:101F90004CEA0E0C2D1821FA0BFEABF120094AEB8E
:101FA000010ACBF120080EFA0BF10CFA09F941EA0B
:101FB00009012CFA08F80CFA0BF02B1A41EA080177
:101FC00000936AEB01030193DDE90023BB4208BFE4
:101FD000B2420CD2C4E90A23D4E90C0110EB0C0084
:101FE00041EB0E01C4E90C0103B0BDE8F08F009B8A
:101FF0001CF1010C4EF1000E9A1B019B63EB0703D1
:10200000C4E90A23E8E732463B460AF06DFF12EBCB
:10201000050843EB0A09B94508BFB04584468E461A
:1020200002D2C4E90A89D7E710F1010C41F1000E90
:10203000B8EB060269EB0703E2E700BF40420F007E
:10204000824206D98A420BD9884294BF00200120DF
:102050007047884206D98A428CBF00200120704711
:1020600001207047002070472DE9F74FD0F8048019
:1020700098F83A300746002B40F0818098F83930C4
:10208000002B7CD1FFF752FF7E683A68736801929B
:10209000002B66D0D6E90C01D3E90023994208BF92
:1020A000904205D3019B5B6903B0BDE8F04F184730
:1020B000141A63EB0105D6E90623AB4208BFA2421E
:1020C000D6F8109006D3B2682E4B9A4219D1A1458A
:1020D00028BFA146326A019B9144F2681B6909EA54
:1020E00002021046019298473B685B689847019A44
:1020F0000146D8F82000FFF7A3FF00283FD03B6837
:10210000D1E796F83B30EBB1A3F1200CC3F12002EC
:1021100024FA02F204FA03F005FA03F104FA0CFCC3
:10212000194C41EA0C0111430019164A4FF0000402
:102130004FF0000344EB01010AF0D6FE814528BFB1
:102140008146C7E71048A2FB04AB02FB05BB1AEBB4
:1021500000004FF000010B4A4FF000034BEB010170
:10216000EAE7D8F81030D8F82000D8F80C20184446
:10217000019B1B69104003B0BDE8F04F184703B046
:10218000BDE8F08F40420F003F420F002DE9F04FB5
:10219000436893F8382085B00546002A63D193F848
:1021A0003A30002B5FD103681B6898472B68DB69C6
:1021B000984703682BB92D4800931A461946FFF734
:1021C0009BF91F21012202FA01F4A3425FFA81FA6E
:1021D00002D00139F7D18A464668321F1C2A05D938
:1021E0000023234800931A461946E8E71C4614F1D9
:1021F000FF384FF000031F494FF0070743F1FF3945
:102200009740C1FB07892246404649460AF06CFECA
:102210006B682A6803934FF00008C3E9008852688E
:10222000894683469047039B0122186202FA06F60C
:102230006B6800210020013EC3E90A01C3E90C01DB
:10224000C3E903672846C3E906B99C6083F83BA04D
:102250001A8783F83A80FFF769FE284605B0BDE883
:10226000F04FFFF701BF05B0BDE8F08F0E0104800D
:102270000501048040420F0070B50446FFF77CF86A
:102280002368DB689847636893F83A201AB1BDE881
:102290007040FFF77BB8012283F8392063685B68E0
:1022A000A3B12046FFF742FE65686E68D5E90C01D0
:1022B000D6E90023994208BF904207D3F3686B60C8
:1022C0002B68002BEAD0B0689847E7E763680022E4
:1022D00083F839202046FFF7C7FED8E738B5044613
:1022E000FFF754FFFFF748F82046FFF71FFE63682B
:1022F000D3E90C45FFF74AF82046294638BD704718
:102300000048704790ED0008024B1B680BB1024873
:10231000184770470801002090ED0008034B596AE8
:102320005A6A521A8242FBD3704700BF000C004029
:1023300030B591FAA1F391FAA1F1B3FA83F384686D
:102340005B000325B1FA81F105FA03F3490024EAA1
:1023500003038A401343836030BD30B591FAA1F383
:1023600091FAA1F1B3FA83F3C4685B000325B1FAD3
:1023700081F105FA03F3490024EA03038A40134379
:10238000C36030BD012A02D0022A18BF0022FFF725
:10239000E4BF00002DE9F84300F00F023E4B1FFAA6
:1023A00080F9C0F3031053F82250C1F3831801F0F1
:1023B00007070E46FEF7BCF9B8F10F0F0CBF03225A
:1023C000424629460446FFF7B3FF022F2FD0032FC2
:1023D0005FD0781E4342434195FAA5F2B2FA82F2E9
:1023E00021685200032000FA02F221EA020195FA64
:1023F000A5F2B2FA82F2520093400B432360E36AE3
:10240000F10207F1FF374CBF2B43AB43012FE362CF
:1024100005D8636832074CBF2B43AB436360C6F3F8
:10242000011229462046BDE8F843FFF7ABBF19F07B
:10243000080FC6F3832217D02B0A93FAA3F1B1FA3F
:1024400081F1406A93FAA3F389004FF00F0CB3FABD
:1024500083F30CFA01F19B0020EA010102FA03F375
:102460000B4363620223B7E795FAA5F1B1FA81F154
:10247000036A89000F2000FA01F123EA010195FAAD
:10248000A5F3B3FA83F39B0002FA03F30B43236231
:10249000E8E73B46A0E700BF6CEF000838B500F066
:1024A0000F021F4BC0F3031053F822500C46FEF7E7
:1024B0003FF995FAA5F2B2FA82F35A0001680323B4
:1024C000934095FAA5F2B2FA82F20B405200D34043
:1024D000013B012B1AD8E31E022B436809D82B437A
:1024E000032C43601AD101222946BDE83840FFF78A
:1024F00049BF23EA0503012C4360F4D0022C0BD022
:1025000029460022BDE83840FFF727BF04F0FD034D
:10251000012BE8D0052CF1D10222E5E7052CEEE7EE
:102520006CEF0008704700F047BBA0F1B400FFF764
:10253000FABF00F044BBA0F1B400FFF7FABF0000FF
:102540000A4B10B503F10802026003F1280294332C
:102550000446C0F8B420C0F8B830B43002F036FDFC
:10256000204600F0D7FB204610BD00BFACEF0008AE
:10257000A0F1B400E4E7A0F1B800E1E710B504462B
:10258000FFF7DEFF2046D021FFF7C2FB204610BD3B
:10259000A0F1B400F2E7A0F1B800EFE77047704790
:1025A00038B504461D46049B00F010FB294604F193
:1025B000B40002F0E3FC064B03F10802226003F1D1
:1025C00028029433C4F8B420C4F8B830204638BD8B
:1025D000ACEF00084368064ADB01D358DA691207FA
:1025E00044BF08221A62D869C0F34010704700BF88
:1025F0003C1B00204368034ADB01D358D869C0F371
:10260000C01070473C1B002010B544681E4B016889
:10261000E20103EBC414D15082686260C368A36016
:102620000369E36043692361036AA3610023A4F89B
:102630005230E361A4F85030A4F85A30A4F858306E
:10264000B0F91A30013312D1082363610F4B99425C
:1026500008D1B2F5165F204610D802F014FC2046CF
:1026600002F031FC2046BDE8104002F0DEBBB0F9BC
:10267000183001330CBF04230C23E6E702F013FCEF
:10268000204602F030FCEDE73C1B002000800040BB
:1026900030B50268234B81609A42B5B004460D46BE
:1026A00018D18422002113A80BF0B6FA2023B5F527
:1026B000165F129312DD002312A8259301F0A6FEE7
:1026C0002046FFF7A1FF50B34FF4806312A8259373
:1026D00001F09CFE2046FFF797FF20E0124DD5F851
:1026E000901011F002010BD1402202A80BF094FAD5
:1026F0000423019301A8012303930B9301F044FAEF
:10270000D5F890309B07D6D54FF4406312A8259397
:1027100001F07CFE2046FFF777FF0028CBD135B0D3
:1027200030BD00BF0080004000100240124B9842B4
:1027300017D0A3F57443984215D003F580639842EF
:1027400013D003F58063984211D003F5806398425B
:102750000FD003F54053984214BF4FF0FF300520CF
:102760007047002070470120704702207047032007
:1027700070470420704700BF00380140F0B50E4696
:1027800087B05349044630461546FFF769F851496A
:1027900007462846FFF764F801463846FFF73EF83B
:1027A000022E20600AD0032D08D049490220FFF7ED
:1027B00057F8B84220D14848FEF78AFE0127206822
:1027C000464B98421AD103F558431A6E42F48042A0
:1027D0001A661B6E03F480430093009B404B9842A3
:1027E00039D1404BDA6D42F00102DA65DB6D03F05E
:1027F00001030593059B2EE00027E0E73A4B984242
:1028000014D003F5806398421BD0384B984252D0C5
:10281000374B9842E2D1334B9A6D42F480129A655D
:102820009B6D03F480130493049B14E02D4B9A6D6D
:1028300042F400329A659B6D03F400330193019BCF
:10284000CCE7284B9A6D42F480229A659B6D03F485
:1028500080230293029BFFF769FF1D4960603046A9
:10286000FEF7BAFF28461B49FEF7B6FF701C03D0DF
:1028700001213046FFF712FE691C03D001212846D2
:10288000FFF70CFE00234FF41652C4E90223C4E9FB
:1028900004332362268365832046FFF7B5FEAFB17C
:1028A000144B154801221A6021464C2207B0BDE89E
:1028B000F0400BF0A3B90B4B9A6D42F400229A65DD
:1028C0009B6D03F400230393039BC4E707B0F0BDA3
:1028D000DCEE00084CEE000848F00008003801402B
:1028E000008000400010024000440040004C0040C6
:1028F00000500040E8070020F01A0020F7B5FFF76D
:1029000015FF041E2EDB184F57F82400002829D08D
:10291000164DE601AB59DA69110609D5DA691206D6
:1029200006D51B681B0603D5114B01211B68984770
:10293000AB59DA6991060BD5DA69920608D51B689E
:10294000980605D50A4B57F824001B6800219847C4
:10295000AB59DA69110705D5DA69120742BF9B8CBA
:102960009BB2019303B0F0BDF00700203C1B002098
:10297000EC0700200148FFF7C1BF00BF0080004006
:102980000148FFF7BBBF00BF005000400148FFF700
:10299000B5BF00BF004C00400148FFF7AFBF00BF0C
:1029A000004800400148FFF7A9BF00BF00440040B5
:1029B0000148FFF7A3BF00BF00380140002808DB33
:1029C0000123420900F01F0003FA00F0014B43F815
:1029D0002200704700E100E000280DDB43090122DE
:1029E00000F01F0002FA00F02033044A42F82300EE
:1029F000BFF34F8FBFF36F8F704700BF00E100E060
:102A0000034B19604168034B43F82120704700BF16
:102A1000EC070020F007002030B4D0E900352A4848
:102A2000834233D00ED8A0F50060834228D000F551
:102A30008060834227D0A0F5006083421DD000242F
:102A4000204608E02148834223D000F538408342E5
:102A5000F5D11F4C2520EB011E4DEB58FAB11A6839
:102A6000D1B942F020021A601B4B00F110029B68A2
:102A700043F8224030BCFFF7A1BF184C2620EAE7FC
:102A8000174C2720E7E7174C3420E4E7164C352095
:102A9000E1E7164C4620DEE742F08002E3E71A68E1
:102AA00049B922F020021A601B6813F0800F09D187
:102AB00030BCFFF791BF22F080021A601B6813F050
:102AC000200FF4E730BC7047005000400080004009
:102AD000B12900083C1B002000ED00E0A5290008FA
:102AE000992900088D290008812900087529000806
:102AF00038B5456804462046FFF76CFD0028FAD03B
:102B0000054BE268ED015B59988C0AB9C0B238BD3B
:102B1000C0F30800FBE700BF3C1B002070B546680F
:102B200005460C462846FFF765FD0028FAD0054B00
:102B3000EA68F6019B5912B9E4B21C8570BDC4F372
:102B40000804FAE73C1B0020704701F1090300EB81
:102B50000313DA6832B100EB01111846D1F89C205A
:102B6000126810477047416830B4034671B1D0E92C
:102B7000032000F0010402B944B1451001EB6000EC
:102B80000CB149598A58996830BC104730BC70471D
:102B900070B50646044656F8443B0D461B689847F8
:102BA00030462946FFF774FD2368C4F8B05020462C
:102BB0005B68BDE8704018474430FFF799BF10B517
:102BC00044300C46FFF7AAFF204610BD2DE9F04F18
:102BD00087B0002501932F4B036010262E4B4360D6
:102BE0000446C0E90355C0E90555884691468583EA
:102BF00032462946806020300BF00EF804F144077D
:102C00003246294604F130000BF006F804F1900A30
:102C10002946A4F840504C2238460AF0FDFF04F142
:102C2000A00B3246294650460AF0F6FF32462946A6
:102C300058460AF0F1FF019BC4F8B03032462946ED
:102C400002A80AF0E9FF02A95046FDF711FB02A80D
:102C5000FDF700FB3246294602A80AF0DDFF02A973
:102C60005846FDF705FB02A8FDF7F4FA4A4641462F
:102C70003846FFF783FDD4F8B0103846FFF708FD5B
:102C8000384606492246FFF7BBFE204607B0BDE89E
:102C9000F08F00BF88F00008672B00084B2B00085E
:102CA0002DE9FF41036815460F4604461B6805F1F0
:102CB0000906984704EB0616FEF75EFBFA68F36810
:102CC00004F14408A2B10BB9FEF7DEFD39463046E7
:102CD000FDF7CEFA012229464046FFF79DFEFEF79A
:102CE00055FB236820465B68984704B0BDE8F08137
:102CF0000BB1FEF7DDFD1022002168460AF08CFFC3
:102D000069463046FDF7B4FA6846FDF7A3FA00229B
:102D1000E1E700001FB51A4B0360044610220021B2
:102D200068460AF079FF002269462046FFF7B8FF9F
:102D30006846FDF78FFA1022002168460AF06CFF02
:102D4000012269462046FFF7ABFF6846FDF782FA8D
:102D500004F1A000FDF77EFA04F19000FDF77AFA85
:102D600004F13000FDF7AAFE04F12000FDF7A6FEF5
:102D7000A06908B1FDF714FB204604B010BD00BFE8
:102D800088F0000810B50446FFF7C4FF2046B421C0
:102D9000FEF7BEFF204610BDDFF820D0002103E083
:102DA000074B5B58435004310648074B42189A4280
:102DB000F6D302F097F9FDF70BFA7047880600107A
:102DC0008CF4000800000020A0060020FEE77047F9
:102DD00010B5032000F020F80F20FDF769FD044630
:102DE00018B9FFF7F4FF204610BD0124FBE70000EF
:102DF00038B50446FDF762FD631C1CBF054B1B681C
:102E0000054618BFE418FDF759FD431BA342FAD34A
:102E100038BD00BF0C0100200749CA6822F4E062F7
:102E20000302120403F4E063120C134343F0BF6384
:102E300043F40033CB60704700ED00E000280DDB69
:102E40004309012200F01F0002FA00F02033044A77
:102E500042F82300BFF34F8FBFF36F8F704700BF5F
:102E600000E100E010B590F82520022A03D00422EA
:102E7000C263012010BD0268836B116821F00E014E
:102E80001160116821F001011160D0E910420121A7
:102E900002F01C0201FA02F26260002480F82510A0
:102EA00080F8244013B198472046E3E71846E1E74D
:102EB00003689A69910744BF00229A629A69D2070F
:102EC0005EBF9A6942F001029A61704730B5039D76
:102ED000046845EA02421A43054B6068C1F30901E0
:102EE00043EA55530A4320EA03000243626030BDBF
:102EF000FF63FF0301F00403144A30B5446B002B59
:102F00000CBF0023B823944201F0120202D0104DEE
:102F1000AC420ED101F01101112908BF43F090031A
:102F2000122A01D143F0600301680A6813430B6061
:102F300030BDCC0748BF43F0F203890748BF43F0D8
:102F4000F403122A08BF43F02003EDE743380008DA
:102F50005B37000811F0010307D090F8413003F00F
:102F60002803282B0CBF4223F2238A0709D590F8A7
:102F7000412002F02802282A0CBF43F0440343F00A
:102F8000F4034A0701680A6848BF43F0B80322EA1D
:102F900003030B607047C36AAA2B02D10023C362EC
:102FA0007047C36AB3F52A4FFAD14FF00073F6E7C2
:102FB000704710B5044600284AD090F8413003F01D
:102FC000FF021BB980F84020FFF7F2FF242384F8AA
:102FD000413023681A6822F001021A60626822F008
:102FE00070621A619A6822F400429A60D4E9022160
:102FF000012924D142F400429A605A6842F00072DA
:1030000042F400425A60DA6822F40042DA60D4E9FD
:1030100004210A43A16942EA0122DA60D4E90721C6
:103020000A431A601A6842F001021A600020202345
:10303000606484F84130206384F8420010BD42F49B
:10304000044202299A6004BF4FF400625A60D4E738
:103050000120F3E737B50446069894F84150202D37
:1030600044D194F84050012D40D0012584F84050BF
:10307000222584F84150102584F8425000256564CB
:103080006385E0621A4B6363638D62629BB2FF2BC0
:103090009BBF638D2385FF23E26A88BF2385236B53
:1030A00088BF4FF08072122B04D1AA2802D0B0F54D
:1030B0002A4F09D12046FFF76EFF638D9BB2FE2B8E
:1030C00000D8E26A0B4B00E0002300932046134631
:1030D000002594F82820FFF7F9FE204684F8405098
:1030E0000221FFF707FF284603B030BD0220FBE7AF
:1030F000393600080024008008B590F84120202AC5
:1031000009D1282280F84120044A42630421FFF7B4
:10311000F1FE002008BD0220FCE700BF5D3400087E
:103120000268436B9169126803B11847704738B55C
:10313000002580F8425090F84130212B4FF02003B9
:1031400080F841300AD11123036345630121FFF761
:1031500001FF80F84050FDF7EBFF38BD12230363F9
:1031600045630221FFF7F6FE80F84050FDF7FEFFB1
:10317000F3E738B5002580F8425090F84130292B0C
:103180000CD1282380F84130212303630121FFF76C
:10319000E1FE80F84050FEF727F838BD90F8413046
:1031A0002A2BFAD1282380F84130222303630221FD
:1031B000FFF7D0FE80F84050FEF71AF8EDE7F8B5BB
:1031C0000368C2689E699D699968DF682D0C022AB0
:1031D0000446C6F3004605F0FE0520D185EAD11568
:1031E00015F00605C1F309020ED1816C013181642D
:1031F000816C022907D108218564D96180F840508B
:103200003146FDF7E7FFF8BD0421FFF7A3FE0023D9
:1032100080F8403007F0FE0231462046F1E70421F5
:10322000FFF798FE002380F840302A46F4E70000BC
:1032300008B5154BC362202200230363436380F863
:10324000412080F842304B0712D503685A6A436A1E
:103250001A70436A01334362038D4BB1013B03850E
:10326000438D013B9BB24385436C43F004034364AD
:103270000721FFF76FFE03681022DA61002380F850
:103280004030FDF7B9FF08BD0000FFFF70477047F1
:1032900070B5314A90F84130002580F84250C26242
:1032A0004585426C283B1143022B0446416421D8DA
:1032B0000321FFF74FFE282380F84130274B056399
:1032C0006363236819681A6811F480411FD0A06BEA
:1032D00022F480421A60002837D0214B83630023F8
:1032E00084F84030FFF7BEFD78B3A06B836BBDE878
:1032F000704018470721FFF72DFE90F84130602BF2
:103300001CBF202380F8413000230363D8E712F468
:1033100000420ED01A68E06B22F400421A60A0B19D
:103320000F4B836384F84010FFF79CFD68B1E06B9E
:10333000DCE794F84130602B08D1202384F8413039
:1033400084F840202046FDF759FF70BD84F84020E6
:103350002046FDF722FFF8E70000FFFF5D3400087C
:10336000A73900080368202270B51E68DA610D468F
:1033700007210446FFF7EEFD03685A6842F4004255
:103380005A605A6822F0FF7222F48B3222F4FF72E4
:1033900022F001025A60FFF78BFD710434D5836B74
:1033A0001BB11B685B689BB263856B0710D52368F4
:1033B0005A6A636A1A70636A01336362238D25F067
:1033C00004052BB1013B2385638D013B9BB26385D3
:1033D000638D9BB21BB1636C43F0040363640023F1
:1033E000236384F84230666C63638EB1616C20465F
:1033F000FFF74EFF94F84130282B1AD1294620467A
:10340000BDE87040FFF714BF3204CED5C36BC7E7E9
:10341000E36A13F5803F0DD02046FFF7AAFE0E4B5E
:10342000E362202384F8413084F840602046FDF7B1
:10343000E3FE70BD94F8413084F84060222B4FF0D9
:10344000200384F84130204602D1FDF7D1FEF0E799
:10345000FDF7CAFEEDE700BF0000FFFF70B516469E
:1034600090F84020C36A012A04460D4600F08C8083
:10347000012280F84020CA0639D5F20637D5428DA0
:1034800092B232BB90F84120282A10D1B3F1007FCC
:103490000DD1FFF7CDFEAA0605D5B30603D5294603
:1034A0002046FFF75FFF002084F8400070BD94F8CD
:1034B0004110226829294FF01001D161EBD113F599
:1034C000803FE8D02046FFF7F3FC2046FFF751FE8F
:1034D000E1E702681021D161426C33F0807342F061
:1034E00004024264D7D1416CFFF7D2FED3E76A07EA
:1034F0001CD570071AD5628D92B27AB12268516AD2
:10350000626A1170626A01326262228D013A22851A
:10351000628D013A92B225F004056285628D92B205
:10352000002AB8D113F5803FB5D0CEE7290712D5D0
:10353000320710D594F8413003F02803282B03D12B
:103540002046FFF73CFEA6E723680822DA61002345
:1035500084F840309FE7A8079DD5B1079BD5628DC1
:1035600092B26AB1636A226813F8011B91626362C6
:10357000638D013B9BB26385238D013B23858AE7E5
:1035800033F0807387D1A0E702208FE708B5036886
:103590002022DA615A6822F0FF7222F48B3222F480
:1035A000FF7222F001025A60002202634263A2F518
:1035B0008032C262CA0605D51022DA61436C43F03C
:1035C00004034364FFF774FC0321FFF7C3FC436C5F
:1035D00090F84120602A00D023B1BDE80840416C3A
:1035E000FFF756BE90F84120212A10D1202280F802
:1035F000412090F8422080F84030402A80F8423044
:1036000002D1FFF743FE08BDFDF792FDFBE790F8FE
:103610004120222AF7D1202280F8412090F8422030
:1036200080F84030402A80F8423002D1FFF72FFE68
:10363000E9E7FDF79BFDE6E773B590F84030012B15
:1036400004460D46164600F086800123CA0680F81F
:10365000403017D5F30615D503681022DA61436CA4
:1036600043F004034364FFF723FCAA0605D5B30621
:1036700003D529462046FFF789FF002084F8400043
:1036800002B070BD680712D5710710D523685A6A59
:10369000636A1A70636A25F0040501336362238D3F
:1036A000013B2385638D013B9BB26385DDE7AA0760
:1036B00007D5B30705D5636A226813F8011B916229
:1036C000ECE7280632D5710630D5638D22689BB2AF
:1036D00003B3208DF0B95168638D9BB2FF2BC1F30A
:1036E000090108D9FF22228500904FF080732046FF
:1036F000FFF7ECFBB9E7628DE36A92B213F5803F06
:1037000022851CBFE36A0090D2B204BF00904FF044
:103710000073ECE753689A0103D42046FFF707FDD6
:10372000A3E740212046FFF7B3FD9EE76B069CD53B
:1037300070069AD5638D9BB2002BF2D123685A682C
:10374000910192D4E26A12F5803FE6D15A6842F4C0
:1037500080425A6089E7022092E770B590F84030C5
:10376000C56A012B04466AD00123CE0680F840309A
:103770004CD5D0064AD5D00B960B40EA9232D207F0
:1037800040D5E26BE2B1034004D013685B68B3FA42
:1037900083F35B09A26B22B1F00702D5126852686D
:1037A00002B103B394F84130282B0BD1B5F1007F5F
:1037B00008D12046FFF73CFD002084F8400070BD92
:1037C0001346E7E794F841202368292A4FF01002B6
:1037D000DA61F1D115F5803FEED02046FFF768FBA6
:1037E000FFF7C7FCE8E723681022DA61636C43F057
:1037F0000403636435F08073DED1616C2046FFF70B
:1038000047FDD9E723681022DA61D5E70E070ED508
:1038100015070CD594F8413003F02803282B03D169
:103820002046FFF7CCFCC7E723680822ECE78806B0
:10383000C2D59306C0D52046FFF794FDBCE7022011
:10384000BDE713B590F84030012B044679D0012331
:1038500080F84030CB0612D5D30610D5036810226D
:10386000DA61436C43F0040343641221FFF742FB27
:10387000FFF71EFB002084F8400002B010BD0B06CD
:1038800042D5500640D523681A6822F040021A60DB
:10389000628D92B262B35968638D9BB2FF2BC1F304
:1038A00009011BD9FF2323854FF08073002200926A
:1038B000204694F82820FFF709FB638D228D9B1A80
:1038C0009BB2638594F84130222B23681A680CBFA1
:1038D00042F4004242F480421A60CBE7638D2385B4
:1038E000E36A13F5803F14BFE36A4FF00073DDE72E
:1038F0005B689A0103D42046FFF719FCBAE7402120
:103900002046FFF7C5FCB5E74B0612D5500610D58B
:10391000638D9BB2002BF2D123685A689201A9D41F
:10392000E26A12F5803FE6D15A6842F480425A605A
:10393000A0E788069ED593069CD52046FFF726FE75
:1039400098E7022099E7036899691A6810B4CC05D2
:1039500008D5140606D5446C44F0010444644FF4C1
:103960008074DC614C0508D5140606D5446C44F01F
:10397000080444644FF48064DC61890508D51206AC
:1039800006D5426C42F0020242644FF40072DA61E2
:10399000416C11F00B0F03D05DF8044BFFF778BCBE
:1039A0005DF8044B7047806A08B5826B002393630F
:1039B000C26B936390F84130602B05D1202380F8CF
:1039C0004130FDF71BFC08BDFDF7E7FBFBE710B539
:1039D00090F84130202BDCB21DD190F84030012B03
:1039E00019D0242380F8413003681A6822F00102BC
:1039F0001A601A6822F480521A601A68114319601A
:103A00001A6842F001021A60002380F8414080F8F1
:103A10004030184610BD0220FCE70000084A116E35
:103A200041F001011166126E82B002F001020192B2
:103A3000044A019B53681843506002B0704700BFAE
:103A40000010024000000140024B186800F4C06002
:103A5000704700BF00700040024A536843F400738F
:103A6000536070470070004037B51E4DAB6DDA00F3
:103A7000044618D5FFF7E8FFB0F5007F23D1802C6E
:103A800029D9A02C8CBF0224012417490A6822F0EE
:103A9000070222430A60086800F00700001B18BFF5
:103AA000012003B030BDAB6D43F08053AB65AB6D0F
:103AB00003F080530193019BFFF7C6FFAB6D23F02A
:103AC0008053AB65D8E7802C07D808D0A4F17003E9
:103AD0005C425C41D9E70024D7E70324D5E7022400
:103AE000D3E700BF0010024000200240224B9A683A
:103AF000D96812F00C0205D00C2A15D101F003018F
:103B0000012918D119681D48090755BFD3F8941029
:103B10001968C1F30321C1F3031150F821004AB31E
:103B20000C2A09D000207047042A22D0082A144801
:103B300018BF002070470020DA6802F00302022A52
:103B400015D00F49032A08BF0846DA68D968DB6830
:103B5000C3F34163C1F30621C2F3021201334843A8
:103B600001325B00B0FBF2F0B0FBF3F070470548A8
:103B7000EBE70448704700BF00100240C0F10008A6
:103B800000127A000024F4002DE9F74305460028CE
:103B90005ED0A74C0368A668E768DB0606F00C0653
:103BA00007F0030774D51EB10C2E53D1012F51D14C
:103BB0002368980702D5AB69002B49D02368286A8F
:103BC000190756BFD4F8943023681B0903F0F0039B
:103BD000984229D9FFF748FF002839D1236843F0DC
:103BE0000803236023682A6A23F0F0031343236049
:103BF0006368EA6923F47F4343EA02236360FFF7C3
:103C000075FFA3688B4AC3F30313D35C03F01F0350
:103C1000D840894B1860894B1868FCF749FE00288A
:103C200036D003B0BDE8F083236843F00803236077
:103C3000236823F0F003034323606368EA6923F4F5
:103C40007F4343EA02236360FFF70EFF0028D6D0CC
:103C50000120E6E7AB69002B36D0236843F001036F
:103C60002360FCF72BFE804623689A0724D523683F
:103C700043F00803236023682A6A23F0F003134308
:103C800023606368EA6923F47F4343EA02236360A5
:103C90002B68D80729D42B68990767D42B68180795
:103CA00000F19C802B68590700F1CA80A86A00289F
:103CB00040F033810020B4E7FCF700FEA0EB0800E1
:103CC0000228D1D90320ACE7236823F00103236045
:103CD000FCF7F4FD804623689B07D9D5FCF7EEFD81
:103CE000A0EB08000228F6D9ECE7082E03D00C2E32
:103CF00008D1032F06D123689A03CCD56B68002B1B
:103D0000C9D1A5E76B68B3F5803F10D1236843F4B0
:103D100080332360FCF7D2FD804623689B03BAD42E
:103D2000FCF7CCFDA0EB08006428F6D9CAE7B3F590
:103D3000A02F04D1236843F480232360E6E72268A0
:103D400022F480322260226822F480222260002B3A
:103D5000E0D1FCF7B3FD8046236898039BD5FCF7C0
:103D6000ADFDA0EB08006428F6D9ABE7042E03D024
:103D70000C2E10D1022F0ED12368590503D5EB6804
:103D8000002B3FF465AF63682A6923F0F85343EAD8
:103D90000263636082E7EB687BB1236843F480735E
:103DA0002360FCF78BFD074623685A05EBD4FCF72C
:103DB00085FDC01B0228F7D984E7236823F48073AC
:103DC0002360FCF77BFD074623685B057FF566AF44
:103DD000FCF774FDC01B0228F6D973E76B699BB131
:103DE000D4F8943043F00103C4F89430FCF766FD36
:103DF0000746D4F894309A073FF554AFFCF75EFDC0
:103E0000C01B0228F5D95DE7D4F8943023F00103F4
:103E1000C4F89430FCF752FD0746D4F894309B0761
:103E20007FF540AFFCF74AFDC01B0228F5D949E7F2
:103E300000100240A8F10008140100201001002029
:103E4000A36DD80029D4A36D43F08053A365A36D5F
:103E500003F080530193019B4FF00108794F3B68B9
:103E6000D9051DD5AB68012B2BD1D4F8903043F088
:103E70000103C4F89030FCF721FD41F28839074670
:103E8000D4F890309B0742D5B8F1000F3FF40EAF45
:103E9000A36D23F08053A36508E74FF00008DDE72A
:103EA0003B6843F480733B60FCF708FD81463B6848
:103EB000DA05D7D4FCF702FDA0EB09000228F6D9F9
:103EC00000E7052B06D1D4F8903043F00403C4F882
:103ED0009030CAE7D4F8902022F00102C4F8902074
:103EE000D4F8902022F00402C4F89020002BC2D114
:103EF000FCF7E4FC41F288390746D4F89030980783
:103F0000C2D5FCF7DBFCC01B4845F6D9DAE6FCF766
:103F1000D5FCC01B4845B3D9D4E60C2E5CD0236831
:103F2000022823F0807323603BD1FCF7C7FC0646D0
:103F3000236899012FD4E268434B1340EA6A134384
:103F40006A6B43EA02232A6B013A43EA0213AA6B23
:103F5000120943EA4243EA6B5208013A43EA4253E8
:103F60002A6C5208013A43EA4263E360236843F053
:103F700080732360E36843F08073E360FCF79EFC8A
:103F8000054623689A013FF595AEFCF797FC401B68
:103F90000228F6D996E6FCF791FC801B0228C7D9C7
:103FA00090E6236813F0205F02BFE36823F0030369
:103FB000E360E36823F0887323F48033E360FCF765
:103FC0007DFC054623689B017FF574AEFCF776FC0B
:103FD000401B0228F6D975E601283FF422AEE368BB
:103FE000EA6A03F0030191427FF432AE296B03F0D9
:103FF00070020139B2EB011F7FF42AAE696B03F442
:10400000FE42B2EB012F7FF423AEAA6B073A03F412
:10401000003118BF012291427FF41AAEEA6B5208B8
:1040200003F4C001013AB1EB425F7FF411AE2A6C98
:10403000520803F0C063013AB3EB426F3FF43AAE6B
:1040400006E600BF007000408C809DF92DE9F0412C
:104050000D46044610B90120BDE8F081404A1368BE
:1040600003F007038B422AD32368D90732D421688F
:104070008A075BD43A4A136803F00703AB425DD862
:1040800011F0040F374D64D10B0706D5AB682269D8
:1040900023F4605343EAC203AB60FFF727FDAB682C
:1040A000314AC3F30313BDE8F041D35C03F01F03AF
:1040B000D8402E4B18602E4B1868FCF7F9BB1368DC
:1040C00023F007030B431360136803F007038B42CD
:1040D000C1D1C9E76268234E032A33681AD113F0AD
:1040E000007FB8D0B36823F003031343B360FCF739
:1040F000E5FB41F288380746B368626803F00C03B9
:10410000B3EB820FB3D0FCF7D9FBC01B4045F3D90A
:104110000320A1E7022A02D113F4003FE1E712B91C
:1041200013F0020FDDE713F4806FDAE70D4AA068A1
:10413000936823F0F003034393609BE7136823F035
:1041400007032B431360136803F00703AB4282D1CC
:1041500096E7AB68E26823F4E0631343AB6093E750
:104160000020024000100240A8F1000814010020C5
:1041700010010020054B064A9B68C3F30223D35C61
:10418000044A106803F01F03D84070470010024033
:10419000B8F1000814010020054B064A9B68C3F3E0
:1041A000C223D35C044A106803F01F03D840704751
:1041B00000100240B8F10008140100200F23036032
:1041C0000B4B9A6802F0030242609A6802F0F00218
:1041D00082609A6802F4E062C2609B68DB0803F4C4
:1041E000E0630361034B1B6803F007030B60704738
:1041F0000010024000200240444AF8B50E46D16843
:10420000036811F0030F0546144629D0D16801F068
:104210000301994278D1002976D0D3684268C3F36C
:104220000213013393426FD1236823F0806323602C
:10423000FCF744FB074623681A0130D4AB681F0221
:10424000A6B3012E4DD12A6921695208531E21F4CB
:10425000C00222F4FE423A4342EA4352226130E075
:10426000022B11D0032B13D0012B4DD1126812F069
:10427000020F49D0E0686A6820F07300013A1843E1
:1042800040EA0210E060CFE7126812F4806FF0E7B6
:1042900011688903EED4126812F4802FE9E7FCF765
:1042A0000DFBC01B0228C6D90320F8BD2169EB68AD
:1042B00021F41F3121F440711B09394341EA434184
:1042C0002161236843F080632360FCF7F7FA064618
:1042D00023681B0112D52369AA69134323610020B7
:1042E000E3E76B6922695B08591E22F0C06323F47F
:1042F000FE433B4343EA41632361E2E7FCF7DEFA16
:10430000801B0228E4D9CFE70120CEE7001002404D
:104310003D4AF8B50E46D168036811F0030F054613
:10432000144627D0D16801F00301994269D10029D0
:1043300067D0D3684268C3F302130133934260D15C
:10434000236823F080532360FCF7B8FA07462368FC
:104350009A002ED4AB68180296B36369296923F0DA
:10436000C063490823F4FE430139034343EA416330
:10437000636130E0022B11D0032B13D0012B40D10D
:10438000126812F0020F3CD0E0686A6820F07300F7
:10439000013A184340EA0210E060D1E7126812F4D3
:1043A000806FF0E711688903EED4126812F4802F51
:1043B000E9E7FCF783FAC01B0228C8D90320F8BD3F
:1043C0006269EB6822F41F3222F440721B09024337
:1043D00042EA43426261236843F080532360FCF762
:1043E0006DFA064623689B0005D563696A69134325
:1043F00063610020E3E7FCF761FA801B0228F1D932
:10440000DCE70120DBE700BF001002402DE9F347A5
:10441000066816F40066044609D0416EB1F5000F37
:1044200022D013D831B3B1F5800F2AD001262368EA
:10443000D80409D5A16EB1F1007F2CD026D881B364
:10444000B1F1807F70D00126354639E0B1F5400FDB
:10445000ECD1B54A616ED2F8883023F440030B43A7
:10446000C2F888300026E2E7AF4AD36843F48033CD
:10447000D360EEE70430FFF7BFFE06460028D6D132
:10448000E7E700212030FFF743FFF6E7B1F1407F77
:10449000D9D1354609E0A44AD36843F48033D360C8
:1044A000F7E7201DFFF7A8FE0546002D42D19E4AE2
:1044B000A16ED2F8883023F040730B43C2F88830E5
:1044C0002368990340F15E81974FBB6DDA0033D4C6
:1044D000BB6D43F08053BB65BB6D03F0805301930C
:1044E000019B4FF00108DFF84492D9F8003043F403
:1044F0008073C9F80030FCF7E1F98246D9F8003042
:10450000DB051CD515BBD7F8903013F4407340F091
:104510000F81D7F89030D4F8842023F440731343EC
:10452000C7F89030354611E0002104F12000FFF774
:10453000EFFEB9E72E46C3E74FF00008D3E7FCF7DC
:10454000BDF9A0EB0A000228D8D90325B8F1000F65
:1045500003D0BB6D23F08053BB652368DA0708D511
:104560007149A06BD1F8882022F003020243C1F800
:1045700088209F0708D56C49E06BD1F8882022F08D
:104580000C020243C1F888205E0708D56649206CFA
:10459000D1F8882022F030020243C1F888201807A1
:1045A00008D56149606CD1F8882022F0C00202432E
:1045B000C1F88820D90608D55B49A06CD1F88820BD
:1045C00022F440720243C1F888209A0608D5564961
:1045D000E06CD1F8882022F440620243C1F88820C0
:1045E0009F0508D55049E06DD1F8882022F440227B
:1045F0000243C1F888205E0508D54B49206ED1F8EA
:10460000882022F440120243C1F88820580608D5B9
:104610004549206DD1F8882022F440520243C1F868
:104620008820190608D54049606DD1F8882022F409
:1046300040420243C1F88820DA0508D53A49A06D06
:10464000D1F8882022F440320243C1F888209B042C
:1046500010D5354AE16ED2F8883023F040630B4321
:10466000B1F1006FC2F8883040F08E80D36843F417
:104670008013D36023681F0310D52B4A216FD2F813
:10468000883023F040630B43B1F1006FC2F88830EB
:1046900040F08680D36843F48013D36023685E03C0
:1046A0000FD5214A616FD2F8883023F040630B4365
:1046B000B1F1006FC2F888307ED1D36843F4801323
:1046C000D3602368580412D51749A26FD1F88830F7
:1046D00023F040531343B2F1805FC1F8883076D1A4
:1046E0000221201DFFF788FD002818BF054622681B
:1046F000110408D50C49E06FD1F8883023F08043CD
:104700000343C1F88830D30309D5074AD4F8801091
:10471000D2F8883023F000430B43C2F88830284693
:1047200002B0BDE8F08700BF0010024000700040FA
:10473000D4F8842093423FF4ECAED7F89020D7F819
:10474000903043F48033C7F89030D7F8903022F49B
:10475000407123F48033D007C7F89030C7F8901029
:104760007FF5D7AEFCF7AAF841F288390546D7F8AD
:10477000903099073FF5CDAEFCF7A0F8401B4845B7
:10478000F5D9E2E63546E8E6B1F1806F7FF472AF25
:104790000121201DFFF730FD002818BF054669E7FD
:1047A000B1F1806F7FF47AAF0121201DFFF724FD66
:1047B000002818BF054671E7B1F1806F81D1012152
:1047C000201DFFF719FD002818BF054679E7B2F153
:1047D000005F8CD1022104F12000FFF799FD83E7EF
:1047E000054BD3F8902022F02002C3F890209A695C
:1047F00022F400729A61704700100240024A136866
:1048000043F004031360704700100240704700003B
:10481000304A0368904212D0B0F1804F0FD0A2F519
:10482000943290420BD002F58062904207D002F59C
:104830008062904203D002F59432904219D14A68C6
:1048400023F070031343234A90421DD0B0F1804FF0
:104850001AD0A2F59432904216D002F580629042AE
:1048600012D002F5806290420ED002F5943290424E
:104870000AD0194A904207D002F58062904203D0D4
:1048800002F58062904203D1CA6823F44073134357
:104890004A6923F08003134303608B68C3620B688B
:1048A00083620C4B98420FD003F5006398420BD003
:1048B00003F54063984207D003F58063984203D024
:1048C00003F58063984201D10B69036301234361BF
:1048D000704700BF002C01400040014010B5044665
:1048E000A0B190F83D3003F0FF021BB980F83C20E6
:1048F000FFF78CFF0223206884F83D30211DFFF76D
:1049000087FF012384F83D30002010BD0120FCE723
:10491000036A01F01F0110B501248C4023EA04034F
:104920000362036A8A401A43026210BD10B504464E
:1049300001220068FFF7ECFF2368124A93420FD070
:1049400002F5006293420BD002F54062934207D019
:1049500002F58062934203D002F58062934203D154
:104960005A6C42F400425A649968074A0A40062A7F
:1049700006D0B2F5803F1EBF1A6842F001021A60ED
:10498000002010BD002C014007000100704700000E
:10499000F8B5C169036882681D680446006902436E
:1049A00060690243B9480A43284002431A605A68C2
:1049B000E06822F4405202435A60B54AA06993422B
:1049C0001CBF226A10439A6822F4306202439A6044
:1049D000B04A93421CD1B04BD3F8883003F00303A4
:1049E000013B022B00F21E81AC4AD35CB1F5004FB3
:1049F00040F0DD80082B00F2D780DFE813F02E01B5
:104A000016011C01D5002801D500D500D5003200C3
:104A1000A34A934206D1A04BA24AD3F8883003F0B0
:104A20000C03E2E7A04A934220D19B4BD3F8883095
:104A300003F03003202B00F0FB800CD8002B00F09B
:104A40000981102B00F00081B1F5004F00F0AC801F
:104A500001250020CDE0302BF6D1B1F5004F40F01C
:104A6000DA806268530803F58033EAE08F4A9342A4
:104A70000FD1894BD3F8883003F0C003802B00F0AE
:104A8000D78004D8002B00F0E580402BDAE7C02B5C
:104A9000E2E7874A934212D17F4BD3F8883003F480
:104AA0004073B3F5007F00F0C38005D8002B00F001
:104AB000D180B3F5807FC5E7B3F5407FCCE7744A7A
:104AC0009342C1D1744BD3F8885005F44065B5F5D5
:104AD000006F2BD009D87DB1B5F5806F22D00125AC
:104AE0000023C4E918332846F8BDB5F5406FF6D168
:104AF00008254FF4004004E0FFF73CFB002800F0DD
:104B00008F80626802EB42038342E8D8B0EB023F39
:104B1000E5D8082D45D8DFE805F00C4422442E44A2
:104B200044443B00FEF7E2FF0425E7E76148022525
:104B3000E7E7FFF71FFB62684FF480715608002714
:104B4000E1FB006700233046394608F0CDF95A4BA7
:104B5000A0F540729A42C2D82368D860C0E757488F
:104B60005508002140194FF0000341F1000108F001
:104B7000BBF90025EBE7FEF7B9FF62684FF48071DF
:104B800056080027E1FB0067002330463946EEE770
:104B9000500810F500004FF000032CBF0121002148
:104BA000E5E701250020D2E7012500235FE0082B7F
:104BB0003FF64EAF01A252F823F000BFE14B0008D0
:104BC000FD4B0008034C0008514A0008114C000836
:104BD000514A0008514A0008514A0008174C000881
:104BE000FFF7C8FA636800EB5300B0FBF3F0002551
:104BF00080B2A0F110024FF6EF73ABE7FFF7CCFAEB
:104C0000F0E76368580800F5740000F51050ECE711
:104C1000FEF76CFFE6E76368580800F50040E4E73C
:104C200005465DE7B1F5004FE8D1FFF7B5FA16E0AC
:104C3000B1F5004FE5D16268530803F1F47303F551
:104C40009043B3FBF2F310E0B1F5004FE0D1FEF773
:104C50004DFF04E0B1F5004FC2D1FFF78BFA636856
:104C60005A0802EB4000B0FBF3F39BB20025A3F11E
:104C700010014FF6EF7291423FF631AF23F00F0271
:104C80002168C3F342031343CB6029E7F369FFEFC5
:104C900000800040003801400010024098F00008F9
:104CA000004400409BF0000800480040004C0040D9
:104CB000005000400024F400FFFC0F00000024F42A
:104CC000436ADA0710B506D50168846A4A6822F497
:104CD000003222434A609C0706D50168C46A4A68CC
:104CE00022F4803222434A60590706D50168046BDA
:104CF0004A6822F4802222434A601A0706D50168D6
:104D0000446B4A6822F4004222434A60DC0606D51E
:104D10000168846B8A6822F4805222438A60990673
:104D200006D50168C46B8A6822F4005222438A6067
:104D30005A060FD50168046C4A6822F48012224397
:104D4000B4F5801F4A6005D14A68446C22F4C00261
:104D500022434A601B0606D50268816C536823F41F
:104D600000230B43536010BD2DE9F041DDF818809E
:104D700004460E4615461F462268D36936EA0303E9
:104D80000CBF01230023AB4201D000201AE0B8F190
:104D9000FF3FF2D0FBF792FDC01B404502D8B8F1AF
:104DA000000FE9D123681A6822F4D0721A609A6859
:104DB00022F001029A6020236367A367002384F82E
:104DC00070300320BDE8F08130B50446002585B081
:104DD000C567FBF773FD226812681107034614D4F8
:104DE00022681268520709D56FF07E4200924FF494
:104DF000800100222046FFF7B7FF98B9202300204A
:104E0000636784F87000A3670DE06FF07E42009244
:104E100003902A464FF400112046FFF7A5FF039B9D
:104E20000028DDD0032005B030BD10B5044640B3E6
:104E3000436F1BB980F87030FFF7A8FD2268242368
:104E40006367136823F0010313602046FFF7A0FD9A
:104E5000012816D0636A13B12046FFF731FF23689B
:104E60005A6822F490425A609A6822F02A029A60A4
:104E70001A6842F0010220461A60BDE81040FFF7B0
:104E8000A3BF012010BD90F87030012B1FBF026836
:104E9000936843F4000393601DBF002380F87030D3
:104EA00018460220704790F87030012B1FBF02682F
:104EB000936823F4000393601DBF002380F87030D3
:104EC00018460220704790F87030012B1FBF02680F
:104ED000136843F0020313601DBF002380F8703095
:104EE00018460220704790F87030012B1FBF0268EF
:104EF000136823F0020313601DBF002380F8703095
:104F00001846022070477047704700207047F8B578
:104F10000368DB6D0D4604468F1898472E46BE4247
:104F2000236806D05B6D16F8011B204698470130B8
:104F3000F5D1236820461B6E9847701BF8BDF8B565
:104F40000368DB6D0D4604468F1898472E46BE4217
:104F5000236807D09B6D20469847431C02D006F873
:104F6000010BF4E7236820461B6E9847701BF8BDC1
:104F70000020704700207047704700000F4B13B5AA
:104F80000022044640F8043BFBF7A4FA0C4B2360D4
:104F90006C336360002363610A492046FCF704FF19
:104FA0000346606128B90090024601460648FCF7B6
:104FB000A3FAFCF723FD204602B010BD90EA0008DA
:104FC00020F10008A8F00008190101800A4B03F144
:104FD0000802743310B5044602604360406908F06B
:104FE00085F9064B236020465C3340F8043FFBF70D
:104FF0008FFA204610BD00BF18F10008B4F0000879
:1050000038B503680446DB6D0D4698470122606998
:10501000002108F0BBFB6169284608F0ADFB23685E
:1050200005461B6E20469847284638BD70B5B8B077
:1050300014220021684608F0EFFD4022002106A856
:1050400008F0EAFD8822002116A808F0E5FD0425F5
:10505000012605A805950796FEF796FD044610B1B2
:10506000002038B070BDFFF7BBFB13230593B023BE
:105070000D930223CDE90F36069408940C9428234F
:105080000624CDE9114305A80723CDE913350B9676
:105090001595FEF779FD04460028E1D1FFF7AEFB38
:1050A0004FF40053169316A84FF040633193FFF767
:1050B000ADF90F210323CDE9001368462946CDE958
:1050C00002440494FEF7C2FFB0FA80F04009C8E73A
:1050D00008B5FFF7ABFF10B90148FCF7F9F908BDB7
:1050E00094F100080F49D1F8883043F47003C1F8F7
:1050F00088300D4B1A68002042F001021A60986057
:105100001A6822F0A85222F410221A604FF480523A
:10511000DA601A6822F480221A609861034B8B606F
:10512000704700BF00ED00E00010024000000008E2
:10513000234A2449136824481B0755BFD2F89430EA
:105140001368C3F30323C3F3031310B551F82340CB
:10515000916801F00C0108290ED00C290ED0042909
:105160002CD11A4B03609368194AC3F30313D25C22
:105170000368D340036010BD164BF3E7D168D368D2
:1051800001F00301C3F30213022903F1010304D068
:10519000032911D0B4FBF3F302E00C49B1FBF3F3A4
:1051A000D468D168C1F34161C4F30624013163437B
:1051B0004900B3FBF1F3D5E70649EFE70460D2E716
:1051C00000100240C0F10008140100200024F40087
:1051D000A8F1000800127A00074B084A13601A6908
:1051E000910707D5DA68920704D56FF002021A61B9
:1051F000FDF78AB8704700BF000C00403C1E00203D
:1052000000487047F0F1000830B589B001A903A843
:10521000FEF7D4FFFEF7AEFF1F4B01909A6D1F4CB7
:1052200042F008029A659A6D02F008020292029A10
:105230009A6B42F008029A639A6B22F008029A6312
:10524000069AA3F5013323604FF0FF33E360144B5C
:10525000FAB9B0FBF3F00138002560600F48256112
:10526000C4E90555A560FFF739FB0E4B0E4A9B6854
:10527000C3F808210D4B4FF480225A600748294695
:10528000FFF754FB2268D36823F00203D36009B010
:1052900030BD4000DDE700BF001002403C1E002092
:1052A00040420F0000ED00E0D951000800E100E0AD
:1052B00004480268D36823F00203D3600021FFF79B
:1052C00035BB00BF3C1E0020014B586A704700BF31
:1052D000000C0040054B1B686FF0020258631A6116
:1052E000DA6842F00202DA60704700BF3C1E00201C
:1052F000064B1B686FF002021A615A6942F0020203
:105300005A61DA6842F00202DA6070473C1E0020FF
:10531000034B1A68D36823F00203D360704700BFC1
:105320003C1E0020024B1B686FF002021A6170479E
:105330003C1E002000B585B00390029111461A462C
:105340000B46ADF806301346ADF80430039BBDF9AB
:105350000420BDF906101846FBF7DAFB0E4A039B42
:105360001A60039BBDF80620A3F8D020039BBDF86C
:105370000420A3F8D220039B029AC3F8D820039BF1
:10538000064AC3F8D420039B102283F8DC20039B39
:10539000184605B05DF804FB00F20008A086010085
:1053A00000B583B00190019B30331846FBF725FE12
:1053B000019B30331846FBF75AFE019B03F1300086
:1053C000019BB3F9D010019BB3F9D2301A46FBF719
:1053D00005FE019BD3F8D4301946019800F011F86E
:1053E00000BF03B05DF804FB82B001900B468DF85E
:1053F0000330019B9DF8032083F8DC2000BF02B03E
:10540000704700B583B001900091019B009AC3F8EA
:10541000D420019B00991846FBF780FA00BF03B027
:105420005DF804FB82B00190019BD3F8D830184698
:1054300002B0704710B586B001900B468DF803306E
:1054400000230593019B042B77D803AA04AB1946CC
:10545000019800F067F9049A3A4913465B00134437
:105460009B000B4408331B78002B53D1E020FCF742
:105470003BFC03461C46039A324913465B00134427
:105480009B000B44B3F90010049A2E4813465B00AE
:1054900013449B000344B3F900300A4601992046A7
:1054A000FFF748FF049A274913465B0013449B000B
:1054B0000B4404331C600499039A22480B465B009A
:1054C0000B449B000344043319681E4813465B00D9
:1054D00013449B00034404331960039A194913468B
:1054E0005B0013449B000B44083305221A70049A96
:1054F000144913465B0013449B000B4408330522F8
:105500001A70049A13465B0013449B000D4A13441F
:10551000059312E0049A0B4913465B0013449B0069
:105520000B4408331B78052B07D1049A13465B0004
:1055300013449B00034A13440593059B184606B089
:1055400010BD00BF6001002000B587B00190009140
:10555000019B0493049B002B1DD0049B5B681846A1
:10556000FFF760FF03460099184600F015F9039015
:10557000049B5B68039A11461846FFF742FF00231D
:105580008DF81730049B5B689DF81720114618466C
:10559000FFF72AFF02E010238DF817309DF817302F
:1055A000184607B05DF804FB00B589B0059003927A
:1055B00002930B46ADF8123000238DF81F30059B87
:1055C0000693069B002B2FD0069B5B681846BDF800
:1055D00012305900029A9DF82830002B14BF012385
:1055E0000023DBB200931346039AFBF7C7F9034687
:1055F000002B14BF01230023DBB2002B08D0069B35
:105600005B681846FFF7CCFE04238DF81F3002E0DC
:1056100000238DF81F30069B5B689DF81F20114604
:105620001846FFF7E1FE02E010238DF81F309DF8C9
:105630001F30184609B05DF804FB000000B587B0C4
:105640000190019B0593059B002B43D0059B5B6854
:10565000002B3FD0059B5B681846FBF7B0F9059B14
:105660005B681846FFF7DEFE03AA04AB194600F09C
:1056700059F8039A194913465B0013449B000B44E5
:10568000083300221A70039A144913465B0013442E
:105690009B000B44043300221A60049A0F491346FE
:1056A0005B0013449B000B44083300221A70049AD9
:1056B0000A4913465B0013449B000B440433002249
:1056C0001A60059B5B68002B04D01A680C321268C4
:1056D0001846904700BF07B05DF804FB600100204A
:1056E00000B583B00190064A019B1A60019B1846E1
:1056F000FBF7ECF9019B184603B05DF804FB00BF13
:1057000000F2000800B583B001900198FFF7E8FFB0
:10571000E0210198FCF7FCFA019B184603B05DF804
:1057200004FB000086B0039002910192039B013BB1
:10573000032B0BD801A252F823F000BF57570008E3
:10574000655700086F570008795700080F23059325
:105750000E23049317E04FF0FF3305934FF0FF3310
:10576000049310E006230593382304930BE01523DC
:1057700005931423049306E04FF0FF3305934FF095
:10578000FF33049300BF029B059A1A60019B049AA1
:105790001A6000BF06B0704784B001900091009B72
:1057A0000393019B013B032B0AD801A252F823F07B
:1057B000D3570008C7570008CD570008D357000833
:1057C000064B039306E0054B039303E0034B03935F
:1057D00000E000BF039B184604B07047A08601009C
:1057E00084B00190009100238DF80F309DF90F30A7
:1057F000184604B07047000000B585B001900091D4
:1058000000238DF80B30019B002B02D14FF0FF33AA
:1058100058E0009B002B02D14FF0FF3352E02B4B9E
:10582000D3E900014FF000024FF0404307F0F4FAD3
:105830000346002B06D0009BD3E900232349C1E98E
:10584000002305E0214BD3E900230099C1E900239F
:105850001E4BD3E90023019B5B681B681C4A136045
:10586000019B5B685B681B4A1360019B5B689B68DC
:10587000194A1360019B5B68DB68184A1360184B78
:1058800000221A6000F09EFF00230393002303937D
:1058900007E0144A039B144942F82310039B013389
:1058A0000393039B002BF4D000F008FC03468DF813
:1058B0000B309DF90B30002B02D10C4B01221A70DA
:1058C0009DF90B30184605B05DF804FB300100204F
:1058D0008008002084080020880800208C08002010
:1058E0009008002008080020216800087E08002099
:1058F00000B587B0019000238DF817300023049382
:1059000000238DF80F302E4B1B78DBB2002B0CBF21
:1059100001230023DBB28DF80E302A4B02221A70CD
:10592000019B002B0BD1264B1B78DBB2002B06D141
:10593000254B1B78DBB2002B01D1012300E00023B3
:105940008DF80F3017E00A20FDF752FA049B03F59B
:105950001C5310330493019BB3F1FF3F05D0049A0D
:10596000019B9A4201D9012300E000238DF80F30FA
:10597000002000F0E1FB124B1B78DBB2002B08D1BA
:10598000114B1B78DBB2002B03D19DF80F30002B9D
:10599000D9D00C4B03221A709DF80F30002B02D087
:1059A0009C238DF817309DF80E30002B01D001F0AC
:1059B00031F89DF91730184607B05DF804FB00BFB9
:1059C0007C0800207E0800207D08002000B587B0FC
:1059D00003468DED000BADF80E3000238DF8173027
:1059E00001238DF816304FF000024FF00003DDE97F
:1059F000000107F01BFA0346002B02D04FF0FF33E3
:105A000052E0BDF80E30FF2B02D94FF0FF334BE0D0
:105A1000274B1B78DBB2032B04D0254B1B78DBB262
:105A2000012B02D1224B04221A70BDF80E30002B3C
:105A30001BD1BDF80E301F4A52F82330002B14D072
:105A400001F05AFB03468DF815309DF81530022BF6
:105A50000BD1BDF80E30174A52F82330BDF80E2096
:105A60001046984703468DF81630BDF80E30ADF855
:105A70001230BDF80E3018469DED000B00F080FA94
:105A80009DF81630002B08D0BDF81230184601F0F2
:105A90000DFB03468DF8173004E0BDF812301846B0
:105AA00001F055FB9DF91730184607B05DF804FB6F
:105AB0007E0800200808002000B583B000238DF880
:105AC0000730002000F038FB03468DF807309DF9C1
:105AD0000730184603B05DF804FB000000B583B042
